{
    "contractName": "BlokistaNFT",
    "abi": [
        {
            "inputs": [
                {
                    "internalType": "string",
                    "name": "_baseURI",
                    "type": "string"
                },
                {
                    "internalType": "address",
                    "name": "_wbnb",
                    "type": "address"
                }
            ],
            "stateMutability": "nonpayable",
            "type": "constructor"
        },
        {
            "anonymous": false,
            "inputs": [
                {
                    "indexed": true,
                    "internalType": "address",
                    "name": "owner",
                    "type": "address"
                },
                {
                    "indexed": true,
                    "internalType": "address",
                    "name": "approved",
                    "type": "address"
                },
                {
                    "indexed": true,
                    "internalType": "uint256",
                    "name": "tokenId",
                    "type": "uint256"
                }
            ],
            "name": "Approval",
            "type": "event"
        },
        {
            "anonymous": false,
            "inputs": [
                {
                    "indexed": true,
                    "internalType": "address",
                    "name": "owner",
                    "type": "address"
                },
                {
                    "indexed": true,
                    "internalType": "address",
                    "name": "operator",
                    "type": "address"
                },
                {
                    "indexed": false,
                    "internalType": "bool",
                    "name": "approved",
                    "type": "bool"
                }
            ],
            "name": "ApprovalForAll",
            "type": "event"
        },
        {
            "anonymous": false,
            "inputs": [
                {
                    "indexed": true,
                    "internalType": "address",
                    "name": "previousOwner",
                    "type": "address"
                },
                {
                    "indexed": true,
                    "internalType": "address",
                    "name": "newOwner",
                    "type": "address"
                },
                {
                    "indexed": false,
                    "internalType": "uint256",
                    "name": "price",
                    "type": "uint256"
                },
                {
                    "indexed": false,
                    "internalType": "uint256",
                    "name": "tokenID",
                    "type": "uint256"
                },
                {
                    "indexed": false,
                    "internalType": "string",
                    "name": "uri",
                    "type": "string"
                }
            ],
            "name": "AuctionEnded",
            "type": "event"
        },
        {
            "anonymous": false,
            "inputs": [
                {
                    "indexed": true,
                    "internalType": "address",
                    "name": "owner",
                    "type": "address"
                },
                {
                    "indexed": false,
                    "internalType": "uint256",
                    "name": "tokenID",
                    "type": "uint256"
                },
                {
                    "indexed": false,
                    "internalType": "uint256",
                    "name": "openingPrice",
                    "type": "uint256"
                },
                {
                    "indexed": false,
                    "internalType": "uint8",
                    "name": "minimumBidOfferIncreasePercent",
                    "type": "uint8"
                }
            ],
            "name": "AuctionStarted",
            "type": "event"
        },
        {
            "anonymous": false,
            "inputs": [
                {
                    "indexed": true,
                    "internalType": "address",
                    "name": "previousOwner",
                    "type": "address"
                },
                {
                    "indexed": true,
                    "internalType": "address",
                    "name": "newOwner",
                    "type": "address"
                },
                {
                    "indexed": false,
                    "internalType": "uint256",
                    "name": "price",
                    "type": "uint256"
                },
                {
                    "indexed": false,
                    "internalType": "uint256",
                    "name": "tokenID",
                    "type": "uint256"
                },
                {
                    "indexed": false,
                    "internalType": "string",
                    "name": "uri",
                    "type": "string"
                }
            ],
            "name": "JustPurchased",
            "type": "event"
        },
        {
            "anonymous": false,
            "inputs": [
                {
                    "indexed": true,
                    "internalType": "address",
                    "name": "owner",
                    "type": "address"
                },
                {
                    "indexed": false,
                    "internalType": "uint256",
                    "name": "tokenID",
                    "type": "uint256"
                },
                {
                    "indexed": false,
                    "internalType": "uint256",
                    "name": "price",
                    "type": "uint256"
                }
            ],
            "name": "MadeOffer",
            "type": "event"
        },
        {
            "anonymous": false,
            "inputs": [
                {
                    "indexed": true,
                    "internalType": "address",
                    "name": "owner",
                    "type": "address"
                },
                {
                    "indexed": false,
                    "internalType": "uint256",
                    "name": "nftID",
                    "type": "uint256"
                },
                {
                    "indexed": false,
                    "internalType": "bool",
                    "name": "listedOrNot",
                    "type": "bool"
                }
            ],
            "name": "NftListStatus",
            "type": "event"
        },
        {
            "anonymous": false,
            "inputs": [
                {
                    "indexed": true,
                    "internalType": "address",
                    "name": "previousOwner",
                    "type": "address"
                },
                {
                    "indexed": true,
                    "internalType": "address",
                    "name": "newOwner",
                    "type": "address"
                }
            ],
            "name": "OwnershipTransferred",
            "type": "event"
        },
        {
            "anonymous": false,
            "inputs": [
                {
                    "indexed": true,
                    "internalType": "address",
                    "name": "owner",
                    "type": "address"
                },
                {
                    "indexed": false,
                    "internalType": "uint256",
                    "name": "oldPrice",
                    "type": "uint256"
                },
                {
                    "indexed": false,
                    "internalType": "uint256",
                    "name": "newPrice",
                    "type": "uint256"
                },
                {
                    "indexed": false,
                    "internalType": "uint256",
                    "name": "tokenID",
                    "type": "uint256"
                }
            ],
            "name": "PriceUpdated",
            "type": "event"
        },
        {
            "anonymous": false,
            "inputs": [
                {
                    "indexed": true,
                    "internalType": "address",
                    "name": "from",
                    "type": "address"
                },
                {
                    "indexed": true,
                    "internalType": "address",
                    "name": "to",
                    "type": "address"
                },
                {
                    "indexed": true,
                    "internalType": "uint256",
                    "name": "tokenId",
                    "type": "uint256"
                }
            ],
            "name": "Transfer",
            "type": "event"
        },
        {
            "inputs": [
                {
                    "internalType": "uint256",
                    "name": "_id",
                    "type": "uint256"
                }
            ],
            "name": "acceptOffer",
            "outputs": [],
            "stateMutability": "nonpayable",
            "type": "function"
        },
        {
            "inputs": [
                {
                    "internalType": "address",
                    "name": "to",
                    "type": "address"
                },
                {
                    "internalType": "uint256",
                    "name": "tokenId",
                    "type": "uint256"
                }
            ],
            "name": "approve",
            "outputs": [],
            "stateMutability": "nonpayable",
            "type": "function"
        },
        {
            "inputs": [
                {
                    "internalType": "address",
                    "name": "owner",
                    "type": "address"
                }
            ],
            "name": "balanceOf",
            "outputs": [
                {
                    "internalType": "uint256",
                    "name": "",
                    "type": "uint256"
                }
            ],
            "stateMutability": "view",
            "type": "function"
        },
        {
            "inputs": [],
            "name": "baseURI",
            "outputs": [
                {
                    "internalType": "string",
                    "name": "",
                    "type": "string"
                }
            ],
            "stateMutability": "view",
            "type": "function"
        },
        {
            "inputs": [
                {
                    "internalType": "uint256",
                    "name": "_tokenId",
                    "type": "uint256"
                }
            ],
            "name": "burn",
            "outputs": [],
            "stateMutability": "nonpayable",
            "type": "function"
        },
        {
            "inputs": [
                {
                    "internalType": "uint256",
                    "name": "_tokenId",
                    "type": "uint256"
                }
            ],
            "name": "buy",
            "outputs": [],
            "stateMutability": "payable",
            "type": "function"
        },
        {
            "inputs": [
                {
                    "internalType": "uint256",
                    "name": "_tokenId",
                    "type": "uint256"
                }
            ],
            "name": "cancelAuction",
            "outputs": [],
            "stateMutability": "nonpayable",
            "type": "function"
        },
        {
            "inputs": [
                {
                    "internalType": "uint256",
                    "name": "_tokenId",
                    "type": "uint256"
                },
                {
                    "internalType": "uint256",
                    "name": "_price",
                    "type": "uint256"
                },
                {
                    "internalType": "uint8",
                    "name": "_minBidIncreasePercent",
                    "type": "uint8"
                }
            ],
            "name": "createAuction",
            "outputs": [],
            "stateMutability": "nonpayable",
            "type": "function"
        },
        {
            "inputs": [],
            "name": "feeAddress",
            "outputs": [
                {
                    "internalType": "address",
                    "name": "",
                    "type": "address"
                }
            ],
            "stateMutability": "view",
            "type": "function"
        },
        {
            "inputs": [],
            "name": "feePercent",
            "outputs": [
                {
                    "internalType": "uint256",
                    "name": "",
                    "type": "uint256"
                }
            ],
            "stateMutability": "view",
            "type": "function"
        },
        {
            "inputs": [
                {
                    "internalType": "uint256",
                    "name": "tokenId",
                    "type": "uint256"
                }
            ],
            "name": "getApproved",
            "outputs": [
                {
                    "internalType": "address",
                    "name": "",
                    "type": "address"
                }
            ],
            "stateMutability": "view",
            "type": "function"
        },
        {
            "inputs": [
                {
                    "internalType": "uint256",
                    "name": "_tokenId",
                    "type": "uint256"
                }
            ],
            "name": "getNftId",
            "outputs": [
                {
                    "internalType": "uint256",
                    "name": "",
                    "type": "uint256"
                }
            ],
            "stateMutability": "view",
            "type": "function"
        },
        {
            "inputs": [
                {
                    "internalType": "uint256",
                    "name": "_nftId",
                    "type": "uint256"
                }
            ],
            "name": "getNftName",
            "outputs": [
                {
                    "internalType": "string",
                    "name": "",
                    "type": "string"
                }
            ],
            "stateMutability": "view",
            "type": "function"
        },
        {
            "inputs": [
                {
                    "internalType": "uint256",
                    "name": "_tokenId",
                    "type": "uint256"
                }
            ],
            "name": "getNftNameOfTokenId",
            "outputs": [
                {
                    "internalType": "string",
                    "name": "",
                    "type": "string"
                }
            ],
            "stateMutability": "view",
            "type": "function"
        },
        {
            "inputs": [
                {
                    "internalType": "uint256",
                    "name": "_id",
                    "type": "uint256"
                }
            ],
            "name": "getStatus",
            "outputs": [
                {
                    "internalType": "uint8",
                    "name": "",
                    "type": "uint8"
                }
            ],
            "stateMutability": "view",
            "type": "function"
        },
        {
            "inputs": [
                {
                    "internalType": "uint256",
                    "name": "",
                    "type": "uint256"
                }
            ],
            "name": "haveListed",
            "outputs": [
                {
                    "internalType": "bool",
                    "name": "",
                    "type": "bool"
                }
            ],
            "stateMutability": "view",
            "type": "function"
        },
        {
            "inputs": [
                {
                    "internalType": "address",
                    "name": "owner",
                    "type": "address"
                },
                {
                    "internalType": "address",
                    "name": "operator",
                    "type": "address"
                }
            ],
            "name": "isApprovedForAll",
            "outputs": [
                {
                    "internalType": "bool",
                    "name": "",
                    "type": "bool"
                }
            ],
            "stateMutability": "view",
            "type": "function"
        },
        {
            "inputs": [
                {
                    "internalType": "uint256[]",
                    "name": "_tokenIdler",
                    "type": "uint256[]"
                },
                {
                    "internalType": "uint256",
                    "name": "_numberOfCopy",
                    "type": "uint256"
                },
                {
                    "internalType": "uint256[]",
                    "name": "prices",
                    "type": "uint256[]"
                }
            ],
            "name": "justSell",
            "outputs": [],
            "stateMutability": "nonpayable",
            "type": "function"
        },
        {
            "inputs": [
                {
                    "internalType": "uint256",
                    "name": "_tokenId",
                    "type": "uint256"
                },
                {
                    "internalType": "uint256",
                    "name": "_offer",
                    "type": "uint256"
                }
            ],
            "name": "makeOffer",
            "outputs": [],
            "stateMutability": "nonpayable",
            "type": "function"
        },
        {
            "inputs": [
                {
                    "internalType": "uint256",
                    "name": "",
                    "type": "uint256"
                }
            ],
            "name": "minBidIncrease",
            "outputs": [
                {
                    "internalType": "uint8",
                    "name": "",
                    "type": "uint8"
                }
            ],
            "stateMutability": "view",
            "type": "function"
        },
        {
            "inputs": [
                {
                    "internalType": "string",
                    "name": "_tokenURI",
                    "type": "string"
                },
                {
                    "internalType": "string",
                    "name": "_name",
                    "type": "string"
                }
            ],
            "name": "mint",
            "outputs": [
                {
                    "internalType": "uint256",
                    "name": "",
                    "type": "uint256"
                }
            ],
            "stateMutability": "nonpayable",
            "type": "function"
        },
        {
            "inputs": [
                {
                    "internalType": "string[]",
                    "name": "_tokenURIs",
                    "type": "string[]"
                },
                {
                    "internalType": "uint256",
                    "name": "_amountOfToken",
                    "type": "uint256"
                }
            ],
            "name": "multipleMint",
            "outputs": [
                {
                    "internalType": "uint256",
                    "name": "",
                    "type": "uint256"
                }
            ],
            "stateMutability": "nonpayable",
            "type": "function"
        },
        {
            "inputs": [],
            "name": "name",
            "outputs": [
                {
                    "internalType": "string",
                    "name": "",
                    "type": "string"
                }
            ],
            "stateMutability": "view",
            "type": "function"
        },
        {
            "inputs": [
                {
                    "internalType": "uint256",
                    "name": "",
                    "type": "uint256"
                }
            ],
            "name": "nftBurnCount",
            "outputs": [
                {
                    "internalType": "uint256",
                    "name": "",
                    "type": "uint256"
                }
            ],
            "stateMutability": "view",
            "type": "function"
        },
        {
            "inputs": [
                {
                    "internalType": "uint256",
                    "name": "",
                    "type": "uint256"
                }
            ],
            "name": "nftCount",
            "outputs": [
                {
                    "internalType": "uint256",
                    "name": "",
                    "type": "uint256"
                }
            ],
            "stateMutability": "view",
            "type": "function"
        },
        {
            "inputs": [
                {
                    "internalType": "uint256",
                    "name": "",
                    "type": "uint256"
                }
            ],
            "name": "onAuction",
            "outputs": [
                {
                    "internalType": "bool",
                    "name": "",
                    "type": "bool"
                }
            ],
            "stateMutability": "view",
            "type": "function"
        },
        {
            "inputs": [],
            "name": "owner",
            "outputs": [
                {
                    "internalType": "address",
                    "name": "",
                    "type": "address"
                }
            ],
            "stateMutability": "view",
            "type": "function"
        },
        {
            "inputs": [
                {
                    "internalType": "uint256",
                    "name": "tokenId",
                    "type": "uint256"
                }
            ],
            "name": "ownerOf",
            "outputs": [
                {
                    "internalType": "address",
                    "name": "",
                    "type": "address"
                }
            ],
            "stateMutability": "view",
            "type": "function"
        },
        {
            "inputs": [
                {
                    "internalType": "uint256",
                    "name": "",
                    "type": "uint256"
                }
            ],
            "name": "price",
            "outputs": [
                {
                    "internalType": "uint256",
                    "name": "",
                    "type": "uint256"
                }
            ],
            "stateMutability": "view",
            "type": "function"
        },
        {
            "inputs": [],
            "name": "renounceOwnership",
            "outputs": [],
            "stateMutability": "nonpayable",
            "type": "function"
        },
        {
            "inputs": [
                {
                    "internalType": "address",
                    "name": "from",
                    "type": "address"
                },
                {
                    "internalType": "address",
                    "name": "to",
                    "type": "address"
                },
                {
                    "internalType": "uint256",
                    "name": "tokenId",
                    "type": "uint256"
                }
            ],
            "name": "safeTransferFrom",
            "outputs": [],
            "stateMutability": "nonpayable",
            "type": "function"
        },
        {
            "inputs": [
                {
                    "internalType": "address",
                    "name": "from",
                    "type": "address"
                },
                {
                    "internalType": "address",
                    "name": "to",
                    "type": "address"
                },
                {
                    "internalType": "uint256",
                    "name": "tokenId",
                    "type": "uint256"
                },
                {
                    "internalType": "bytes",
                    "name": "_data",
                    "type": "bytes"
                }
            ],
            "name": "safeTransferFrom",
            "outputs": [],
            "stateMutability": "nonpayable",
            "type": "function"
        },
        {
            "inputs": [
                {
                    "internalType": "address",
                    "name": "operator",
                    "type": "address"
                },
                {
                    "internalType": "bool",
                    "name": "approved",
                    "type": "bool"
                }
            ],
            "name": "setApprovalForAll",
            "outputs": [],
            "stateMutability": "nonpayable",
            "type": "function"
        },
        {
            "inputs": [
                {
                    "internalType": "address",
                    "name": "_feeAddress",
                    "type": "address"
                },
                {
                    "internalType": "uint256",
                    "name": "_feePercent",
                    "type": "uint256"
                }
            ],
            "name": "setFee",
            "outputs": [],
            "stateMutability": "nonpayable",
            "type": "function"
        },
        {
            "inputs": [
                {
                    "internalType": "uint256",
                    "name": "_nftId",
                    "type": "uint256"
                },
                {
                    "internalType": "string",
                    "name": "_name",
                    "type": "string"
                }
            ],
            "name": "setNftName",
            "outputs": [],
            "stateMutability": "nonpayable",
            "type": "function"
        },
        {
            "inputs": [
                {
                    "internalType": "bytes4",
                    "name": "interfaceId",
                    "type": "bytes4"
                }
            ],
            "name": "supportsInterface",
            "outputs": [
                {
                    "internalType": "bool",
                    "name": "",
                    "type": "bool"
                }
            ],
            "stateMutability": "view",
            "type": "function"
        },
        {
            "inputs": [],
            "name": "symbol",
            "outputs": [
                {
                    "internalType": "string",
                    "name": "",
                    "type": "string"
                }
            ],
            "stateMutability": "view",
            "type": "function"
        },
        {
            "inputs": [
                {
                    "internalType": "uint256",
                    "name": "index",
                    "type": "uint256"
                }
            ],
            "name": "tokenByIndex",
            "outputs": [
                {
                    "internalType": "uint256",
                    "name": "",
                    "type": "uint256"
                }
            ],
            "stateMutability": "view",
            "type": "function"
        },
        {
            "inputs": [
                {
                    "internalType": "address",
                    "name": "owner",
                    "type": "address"
                },
                {
                    "internalType": "uint256",
                    "name": "index",
                    "type": "uint256"
                }
            ],
            "name": "tokenOfOwnerByIndex",
            "outputs": [
                {
                    "internalType": "uint256",
                    "name": "",
                    "type": "uint256"
                }
            ],
            "stateMutability": "view",
            "type": "function"
        },
        {
            "inputs": [
                {
                    "internalType": "uint256",
                    "name": "tokenId",
                    "type": "uint256"
                }
            ],
            "name": "tokenURI",
            "outputs": [
                {
                    "internalType": "string",
                    "name": "",
                    "type": "string"
                }
            ],
            "stateMutability": "view",
            "type": "function"
        },
        {
            "inputs": [],
            "name": "totalSupply",
            "outputs": [
                {
                    "internalType": "uint256",
                    "name": "",
                    "type": "uint256"
                }
            ],
            "stateMutability": "view",
            "type": "function"
        },
        {
            "inputs": [
                {
                    "internalType": "address",
                    "name": "from",
                    "type": "address"
                },
                {
                    "internalType": "address",
                    "name": "to",
                    "type": "address"
                },
                {
                    "internalType": "uint256",
                    "name": "tokenId",
                    "type": "uint256"
                }
            ],
            "name": "transferFrom",
            "outputs": [],
            "stateMutability": "nonpayable",
            "type": "function"
        },
        {
            "inputs": [
                {
                    "internalType": "address",
                    "name": "newOwner",
                    "type": "address"
                }
            ],
            "name": "transferOwnership",
            "outputs": [],
            "stateMutability": "nonpayable",
            "type": "function"
        },
        {
            "inputs": [
                {
                    "internalType": "uint256",
                    "name": "_tokenId",
                    "type": "uint256"
                },
                {
                    "internalType": "uint256",
                    "name": "_price",
                    "type": "uint256"
                }
            ],
            "name": "updatePriceAsOwner",
            "outputs": [],
            "stateMutability": "nonpayable",
            "type": "function"
        },
        {
            "inputs": [],
            "name": "wbnb",
            "outputs": [
                {
                    "internalType": "address",
                    "name": "",
                    "type": "address"
                }
            ],
            "stateMutability": "view",
            "type": "function"
        }
    ],
    "bytecode": "60806040526005600d553480156200001657600080fd5b50604051620043cd380380620043cd8339810160408190526200003991620002b1565b60405180604001604052806008815260200167426c6f6b6973746160c01b81525060405180604001604052806008815260200167424c4f4b4953544160c01b815250620000936301ffc9a760e01b6200019d60201b60201c565b8151620000a890600690602085019062000215565b508051620000be90600790602084019062000215565b50620000d16380ac58cd60e01b6200019d565b620000e3635b5e139f60e01b6200019d565b620000f563780e9d6360e01b6200019d565b506000905062000104620001f8565b600a80546001600160a01b0319166001600160a01b038316908117909155604051919250906000907f8be0079c531659141344cd1fd0a4f28419497f9722a3daafe3b4186f6b6457e0908290a3506200015d82620001fc565b62000167620001f8565b600c80546001600160a01b039283166001600160a01b031991821617909155600b805493909216921691909117905550620003ef565b6001600160e01b03198082161415620001d35760405162461bcd60e51b8152600401620001ca906200036c565b60405180910390fd5b6001600160e01b0319166000908152602081905260409020805460ff19166001179055565b3390565b80516200021190600990602084019062000215565b5050565b828054600181600116156101000203166002900490600052602060002090601f016020900481019282601f106200025857805160ff191683800117855562000288565b8280016001018555821562000288579182015b82811115620002885782518255916020019190600101906200026b565b50620002969291506200029a565b5090565b5b808211156200029657600081556001016200029b565b60008060408385031215620002c4578182fd5b82516001600160401b0380821115620002db578384fd5b818501915085601f830112620002ef578384fd5b815181811115620002fe578485fd5b604051601f8201601f1916810160200183811182821017156200031f578687fd5b60405281815283820160200188101562000337578586fd5b6200034a826020830160208701620003a3565b8095505050505060208301516200036181620003d6565b809150509250929050565b6020808252601c908201527f4552433136353a20696e76616c696420696e7465726661636520696400000000604082015260600190565b60005b83811015620003c0578181015183820152602001620003a6565b83811115620003d0576000848401525b50505050565b6001600160a01b0381168114620003ec57600080fd5b50565b613fce80620003ff6000396000f3fe6080604052600436106102725760003560e01c8063706e9ba91161014f578063a22cb465116100c1578063d96a094a1161007a578063d96a094a14610740578063e55156b514610753578063e985e9c514610773578063edb4942a14610793578063ee056e1d146107b3578063f2fde38b146107d357610272565b8063a22cb46514610680578063b88d4fde146106a0578063c3d671cb146106c0578063c815729d146106e0578063c87b56dd14610700578063d36173541461072057610272565b80638972263b116101135780638972263b146105e15780638aa0fdad146106015780638d72647e146106215780638da5cb5b1461063657806395d89b411461064b57806396b5a7551461066057610272565b8063706e9ba91461055757806370a0823114610577578063715018a6146105975780637fd6f15c146105ac57806383e218e7146105c157610272565b8063278ec44f116101e857806342966c68116101ac57806342966c68146104955780634f6ccce7146104b55780635c622a0e146104d55780636352211e146105025780636837f403146105225780636c0360eb1461054257610272565b8063278ec44f146104005780632f745c591461042057806337eb130c14610440578063412753581461046057806342842e0e1461047557610272565b8063095ea7b31161023a578063095ea7b31461034b578063121f6a3a1461036b57806318160ddd1461038b57806323b872dd146103a05780632528115b146103c057806326a49e37146103e057610272565b806301ffc9a714610277578063023f1532146102ad57806305b7cdd3146102da57806306fdde03146102fc578063081812fc1461031e575b600080fd5b34801561028357600080fd5b50610297610292366004613189565b6107f3565b6040516102a49190613406565b60405180910390f35b3480156102b957600080fd5b506102cd6102c8366004613222565b610816565b6040516102a49190613e05565b3480156102e657600080fd5b506102fa6102f5366004613275565b610828565b005b34801561030857600080fd5b50610311610963565b6040516102a49190613411565b34801561032a57600080fd5b5061033e610339366004613222565b6109f9565b6040516102a4919061339c565b34801561035757600080fd5b506102fa61036636600461304b565b610a45565b34801561037757600080fd5b506102cd610386366004613222565b610add565b34801561039757600080fd5b506102cd610aef565b3480156103ac57600080fd5b506102fa6103bb366004612f6c565b610b00565b3480156103cc57600080fd5b506102cd6103db366004613075565b610b38565b3480156103ec57600080fd5b506102cd6103fb366004613222565b610c03565b34801561040c57600080fd5b5061031161041b366004613222565b610c15565b34801561042c57600080fd5b506102cd61043b36600461304b565b610cb6565b34801561044c57600080fd5b5061029761045b366004613222565b610cdf565b34801561046c57600080fd5b5061033e610cf4565b34801561048157600080fd5b506102fa610490366004612f6c565b610d03565b3480156104a157600080fd5b506102fa6104b0366004613222565b610d1e565b3480156104c157600080fd5b506102cd6104d0366004613222565b610e1d565b3480156104e157600080fd5b506104f56104f0366004613222565b610e33565b6040516102a49190613e83565b34801561050e57600080fd5b5061033e61051d366004613222565b610e79565b34801561052e57600080fd5b5061029761053d366004613222565b610ea1565b34801561054e57600080fd5b50610311610eb6565b34801561056357600080fd5b506102cd610572366004613222565b610f17565b34801561058357600080fd5b506102cd610592366004612f1d565b610f29565b3480156105a357600080fd5b506102fa610f72565b3480156105b857600080fd5b506102cd610ff1565b3480156105cd57600080fd5b506104f56105dc366004613222565b610ff7565b3480156105ed57600080fd5b506102fa6105fc366004613103565b61100c565b34801561060d57600080fd5b506102cd61061c3660046131c1565b611179565b34801561062d57600080fd5b5061033e611238565b34801561064257600080fd5b5061033e611247565b34801561065757600080fd5b50610311611256565b34801561066c57600080fd5b506102fa61067b366004613222565b6112b7565b34801561068c57600080fd5b506102fa61069b366004613014565b6113fa565b3480156106ac57600080fd5b506102fa6106bb366004612fac565b6114c8565b3480156106cc57600080fd5b506102fa6106db366004613296565b611501565b3480156106ec57600080fd5b506102fa6106fb366004613222565b611619565b34801561070c57600080fd5b5061031161071b366004613222565b61174d565b34801561072c57600080fd5b5061031161073b366004613222565b611897565b6102fa61074e366004613222565b611944565b34801561075f57600080fd5b506102fa61076e36600461304b565b611ac8565b34801561077f57600080fd5b5061029761078e366004612f38565b611b23565b34801561079f57600080fd5b506102fa6107ae366004613275565b611b51565b3480156107bf57600080fd5b506102fa6107ce36600461323a565b611c08565b3480156107df57600080fd5b506102fa6107ee366004612f1d565b611cf2565b6001600160e01b0319811660009081526020819052604090205460ff165b919050565b60116020526000908152604090205481565b6000828152601860205260409020546001600160a01b0316610848611da9565b600084815260186020526040902080546001600160a01b0319166001600160a01b039283161790558116156108a057600083815260106020526040902054600b546108a0916001600160a01b03909116908390611dad565b600b60009054906101000a90046001600160a01b03166001600160a01b031663d0e30db0836040518263ffffffff1660e01b81526004016000604051808303818588803b1580156108f057600080fd5b505af1158015610904573d6000803e3d6000fd5b50505050506109138383611e03565b5061091c611da9565b6001600160a01b03167f94a2783ad36ddb2d3595443740ccce312a6cc92594d9ce08ca6ea84a3d16b7f88484604051610956929190613e1e565b60405180910390a2505050565b60068054604080516020601f60026000196101006001881615020190951694909404938401819004810282018101909252828152606093909290918301828280156109ef5780601f106109c4576101008083540402835291602001916109ef565b820191906000526020600020905b8154815290600101906020018083116109d257829003601f168201915b5050505050905090565b6000610a0482611e1a565b610a295760405162461bcd60e51b8152600401610a2090613a3d565b60405180910390fd5b506000908152600460205260409020546001600160a01b031690565b6000610a5082610e79565b9050806001600160a01b0316836001600160a01b03161415610a845760405162461bcd60e51b8152600401610a2090613c1f565b806001600160a01b0316610a96611da9565b6001600160a01b03161480610ab25750610ab28161078e611da9565b610ace5760405162461bcd60e51b8152600401610a209061387a565b610ad88383611e27565b505050565b60126020526000908152604090205481565b6000610afb6002611e95565b905090565b610b11610b0b611da9565b82611ea0565b610b2d5760405162461bcd60e51b8152600401610a2090613c97565b610ad8838383611f25565b600080610b456016612033565b9050610b516016612037565b60005b83811015610bf9576000610b686014612033565b9050610b746014612037565b60008181526015602090815260408083208690558583526011909152902054610b9e906001612040565b600084815260116020526040902055610bbe610bb8611da9565b82612065565b610bdb81878481518110610bce57fe5b602002602001015161207f565b6000908152600f60205260409020805460ff19169055600101610b54565b5090505b92915050565b60106020526000908152604090205481565b60008181526017602090815260409182902080548351601f6002600019610100600186161502019093169290920491820184900484028101840190945280845260609392830182828015610caa5780601f10610c7f57610100808354040283529160200191610caa565b820191906000526020600020905b815481529060010190602001808311610c8d57829003601f168201915b50505050509050919050565b6001600160a01b0382166000908152600160205260408120610cd890836120c3565b9392505050565b60136020526000908152604090205460ff1681565b600c546001600160a01b031681565b610ad8838383604051806020016040528060008152506114c8565b610d2781611e1a565b610d435760405162461bcd60e51b8152600401610a2090613d1f565b610d4c81610e79565b6001600160a01b0316610d5d611da9565b6001600160a01b031614610d835760405162461bcd60e51b8152600401610a2090613921565b6000818152600f602052604090205460ff1615610db25760405162461bcd60e51b8152600401610a2090613466565b600081815260156020908152604080832054808452601190925290912054610ddb9060016120cf565b600082815260116020908152604080832093909355601290522054610e01906001612040565b600082815260126020526040902055610e1982612111565b5050565b600080610e2b6002846121de565b509392505050565b6000818152600f602052604081205460ff1615610e715760008281526013602052604090205460ff1615610e6957506001610811565b506002610811565b506000610811565b6000610bfd82604051806060016040528060298152602001613f7060299139600291906121fa565b600f6020526000908152604090205460ff1681565b60098054604080516020601f60026000196101006001881615020190951694909404938401819004810282018101909252828152606093909290918301828280156109ef5780601f106109c4576101008083540402835291602001916109ef565b60009081526015602052604090205490565b60006001600160a01b038216610f515760405162461bcd60e51b8152600401610a20906138d7565b6001600160a01b0382166000908152600160205260409020610bfd90611e95565b610f7a611da9565b600a546001600160a01b03908116911614610fa75760405162461bcd60e51b8152600401610a2090613ad5565b600a546040516000916001600160a01b0316907f8be0079c531659141344cd1fd0a4f28419497f9722a3daafe3b4186f6b6457e0908390a3600a80546001600160a01b0319169055565b600d5481565b600e6020526000908152604090205460ff1681565b60005b8281101561117357600f600085838151811061102757fe5b60209081029190910181015182528101919091526040016000205460ff161515600114156110675760405162461bcd60e51b8152600401610a20906135da565b61108384828151811061107657fe5b6020026020010151610e79565b6001600160a01b0316611094611da9565b6001600160a01b0316146110ba5760405162461bcd60e51b8152600401610a209061372e565b6110d68482815181106110c957fe5b6020026020010151611e1a565b6110f25760405162461bcd60e51b8152600401610a2090613be8565b8181815181106110fe57fe5b60200260200101516010600086848151811061111657fe5b60200260200101518152602001908152602001600020819055506001600f600086848151811061114257fe5b6020908102919091018101518252810191909152604001600020805460ff191691151591909117905560010161100f565b50505050565b6000806111866016612033565b600081815260176020908152604090912085519293506111aa929091860190612d55565b506111b56016612037565b60006111c16014612033565b90506111cd6014612037565b600081815260156020908152604080832085905584835260119091529020546111f7906001612040565b600083815260116020526040902055611211610bb8611da9565b61121b818661207f565b6000908152600f60205260409020805460ff191690559392505050565b600b546001600160a01b031681565b600a546001600160a01b031690565b60078054604080516020601f60026000196101006001881615020190951694909404938401819004810282018101909252828152606093909290918301828280156109ef5780601f106109c4576101008083540402835291602001916109ef565b806112c181610e79565b6001600160a01b03166112d2611da9565b6001600160a01b0316146112f85760405162461bcd60e51b8152600401610a2090613814565b61130181611e1a565b61131d5760405162461bcd60e51b8152600401610a2090613be8565b6000828152601860205260409020546001600160a01b0316156113525760405162461bcd60e51b8152600401610a2090613ba2565b60008281526013602052604090205460ff166113805760405162461bcd60e51b8152600401610a20906135a3565b6000828152600f60209081526040808320805460ff199081169091556013909252909120805490911690556113b3611da9565b6001600160a01b03167f3fd63d9ca8dc693a1b9911e664951294721009a4f6239c862d6719a160a1edfc8360006040516113ee929190613e0e565b60405180910390a25050565b611402611da9565b6001600160a01b0316826001600160a01b031614156114335760405162461bcd60e51b8152600401610a2090613683565b8060056000611440611da9565b6001600160a01b03908116825260208083019390935260409182016000908120918716808252919093529120805460ff191692151592909217909155611484611da9565b6001600160a01b03167f17307eab39ab6107e8899845ad3d59bd9653f200f220920489ca2b5937696c31836040516114bc9190613406565b60405180910390a35050565b6114d96114d3611da9565b83611ea0565b6114f55760405162461bcd60e51b8152600401610a2090613c97565b61117384848484612207565b8261150b81610e79565b6001600160a01b031661151c611da9565b6001600160a01b0316146115425760405162461bcd60e51b8152600401610a2090613814565b61154b81611e1a565b6115675760405162461bcd60e51b8152600401610a2090613be8565b6000848152600e60209081526040808320805460ff871660ff1991821617909155600f8352818420805482166001908117909155601384528285208054909216179055601090915290208390556115bc611da9565b6001600160a01b03167f0be3af8795bf2ba623b6c9bcf86ce732d1ed0fcf6da3ee178c00e7f7d6f6a47b8560106000888152602001908152602001600020548560405161160b93929190613e6a565b60405180910390a250505050565b8061162381610e79565b6001600160a01b0316611634611da9565b6001600160a01b03161461165a5760405162461bcd60e51b8152600401610a2090613814565b61166381611e1a565b61167f5760405162461bcd60e51b8152600401610a2090613be8565b60008281526013602052604090205460ff166116ad5760405162461bcd60e51b8152600401610a2090613c60565b6000828152601360205260409020805460ff191690556116cc8261223a565b60006116d783610e79565b6000848152601860209081526040808320546010909252909120549192506001600160a01b0390811691908316907f43cc32c17b844a61a186a320d5980141e0f17dab3142a06916ba8d095f97177d90866117318161174d565b60405161174093929190613e2c565b60405180910390a3505050565b606061175882611e1a565b6117745760405162461bcd60e51b8152600401610a2090613b53565b60008281526008602090815260409182902080548351601f60026000196101006001861615020190931692909204918201849004840281018401909452808452606093928301828280156118095780601f106117de57610100808354040283529160200191611809565b820191906000526020600020905b8154815290600101906020018083116117ec57829003601f168201915b505060095493945050505060026000196101006001841615020190911604611832579050610811565b8051156118645760098160405160200161184d92919061331b565b604051602081830303815290604052915050610811565b600961186f84612302565b60405160200161188092919061331b565b604051602081830303815290604052915050919050565b600081815260156020908152604080832054808452601783529281902080548251601f60026000196101006001861615020190931692909204918201859004850281018501909352808352606094938301828280156119375780601f1061190c57610100808354040283529160200191611937565b820191906000526020600020905b81548152906001019060200180831161191a57829003601f168201915b5050505050915050919050565b8061194e81611e1a565b61196a5760405162461bcd60e51b8152600401610a2090613d1f565b6000818152600f602052604090205460ff166119985760405162461bcd60e51b8152600401610a2090613d4d565b6000818152601060205260409020543410156119c65760405162461bcd60e51b8152600401610a2090613dce565b6119cf81610e79565b6001600160a01b03166119e0611da9565b6001600160a01b03161415611a075760405162461bcd60e51b8152600401610a20906134ef565b60008281526013602052604090205460ff1615611a365760405162461bcd60e51b8152600401610a20906136ba565b6000611a4183610e79565b90506000611a4d611da9565b9050611a58846123dd565b806001600160a01b0316826001600160a01b03167f3e312117f0a31236e6387da22129d0d835abb859cfafc40024e239eefe113275601060008881526020019081526020016000205487611aab8961174d565b604051611aba93929190613e2c565b60405180910390a350505050565b611ad0611da9565b600a546001600160a01b03908116911614611afd5760405162461bcd60e51b8152600401610a2090613ad5565b600c80546001600160a01b0319166001600160a01b039390931692909217909155600d55565b6001600160a01b03918216600090815260056020908152604080832093909416825291909152205460ff1690565b611b5a82611e1a565b611b765760405162461bcd60e51b8152600401610a2090613d1f565b611b7f82610e79565b6001600160a01b0316611b90611da9565b6001600160a01b031614611bb65760405162461bcd60e51b8152600401610a2090613843565b6000611bc28383611e03565b9050611bcc611da9565b6001600160a01b03167f40a2e1011bc4b63fe019abc98ce43b9ae4a22f2072b84f3d14941dc1675979c282848660405161095693929190613e54565b81611c1281610e79565b6001600160a01b0316611c23611da9565b6001600160a01b031614611c495760405162461bcd60e51b8152600401610a2090613814565b611c5281611e1a565b611c6e5760405162461bcd60e51b8152600401610a2090613be8565b611c7783611e1a565b611c935760405162461bcd60e51b8152600401610a2090613702565b611c9c83610e79565b6001600160a01b0316611cad611da9565b6001600160a01b031614611cd35760405162461bcd60e51b8152600401610a20906139c5565b6000838152601760209081526040909120835161117392850190612d55565b611cfa611da9565b600a546001600160a01b03908116911614611d275760405162461bcd60e51b8152600401610a2090613ad5565b6001600160a01b038116611d4d5760405162461bcd60e51b8152600401610a2090613526565b600a546040516001600160a01b038084169216907f8be0079c531659141344cd1fd0a4f28419497f9722a3daafe3b4186f6b6457e090600090a3600a80546001600160a01b0319166001600160a01b0392909216919091179055565b3390565b610ad88363a9059cbb60e01b8484604051602401611dcc9291906133ed565b60408051601f198184030181529190526020810180516001600160e01b03166001600160e01b031990931692909217909152612529565b600091825260106020526040909120805491905590565b6000610bfd6002836125b8565b600081815260046020526040902080546001600160a01b0319166001600160a01b0384169081179091558190611e5c82610e79565b6001600160a01b03167f8c5be1e5ebec7d5bd14f71427d1e84f3dd0314c0f7b2291e5b200ac8c7c3b92560405160405180910390a45050565b6000610bfd82612033565b6000611eab82611e1a565b611ec75760405162461bcd60e51b8152600401610a20906137c8565b6000611ed283610e79565b9050806001600160a01b0316846001600160a01b03161480611f0d5750836001600160a01b0316611f02846109f9565b6001600160a01b0316145b80611f1d5750611f1d8185611b23565b949350505050565b826001600160a01b0316611f3882610e79565b6001600160a01b031614611f5e5760405162461bcd60e51b8152600401610a2090613b0a565b6001600160a01b038216611f845760405162461bcd60e51b8152600401610a209061363f565b611f8f838383610ad8565b611f9a600082611e27565b6001600160a01b0383166000908152600160205260409020611fbc90826125c4565b506001600160a01b0382166000908152600160205260409020611fdf90826125d0565b50611fec600282846125dc565b5080826001600160a01b0316846001600160a01b03167fddf252ad1be2c89b69c2b068fc378daa952ba7f163c4a11628f55a4df523b3ef60405160405180910390a4505050565b5490565b80546001019055565b600082820183811015610cd85760405162461bcd60e51b8152600401610a2090613608565b610e198282604051806020016040528060008152506125f2565b61208882611e1a565b6120a45760405162461bcd60e51b8152600401610a2090613a89565b60008281526008602090815260409091208251610ad892840190612d55565b6000610cd88383612625565b6000610cd883836040518060400160405280601e81526020017f536166654d6174683a207375627472616374696f6e206f766572666c6f77000081525061266a565b600061211c82610e79565b905061212a81600084610ad8565b612135600083611e27565b600082815260086020526040902054600260001961010060018416150201909116041561217357600082815260086020526040812061217391612dd3565b6001600160a01b038116600090815260016020526040902061219590836125c4565b506121a1600283612696565b5060405182906000906001600160a01b038416907fddf252ad1be2c89b69c2b068fc378daa952ba7f163c4a11628f55a4df523b3ef908390a45050565b60008080806121ed86866126a2565b9097909650945050505050565b6000611f1d8484846126fe565b612212848484611f25565b61221e8484848461275d565b6111735760405162461bcd60e51b8152600401610a209061349d565b600061224582610e79565b60008381526018602052604090205490915061226c9082906001600160a01b031684611f25565b600d54600083815260106020526040812054909161229791606491612291919061283c565b90612876565b6000848152601060205260409020549091508190036122ca6122b7611da9565b600b546001600160a01b03169083611dad565b600c54600b546122e7916001600160a01b03918216911684611dad565b5050506000908152600f60205260409020805460ff19169055565b60608161232757506040805180820190915260018152600360fc1b6020820152610811565b8160005b811561233f57600101600a8204915061232b565b60608167ffffffffffffffff8111801561235857600080fd5b506040519080825280601f01601f191660200182016040528015612383576020820181803683370190505b50859350905060001982015b83156123d457600a840660300160f81b828280600190039350815181106123b257fe5b60200101906001600160f81b031916908160001a905350600a8404935061238f565b50949350505050565b60006123e882610e79565b905060006123f4611da9565b9050612401828285611f25565b600d54600084815260106020526040812054909161242691606491612291919061283c565b600085815260106020526040808220549051929350839003916001600160a01b0386169183156108fc02918491818181858888f19350505050158015612470573d6000803e3d6000fd5b50600c546040516001600160a01b039091169083156108fc029084906000818181858888f193505050501580156124ab573d6000803e3d6000fd5b5060008581526010602052604090205434111561250d576000858152601060205260408082205490516001600160a01b03861692349290920380156108fc0292909190818181858888f1935050505015801561250b573d6000803e3d6000fd5b505b505050600091825250600f60205260409020805460ff19169055565b606061257e826040518060400160405280602081526020017f5361666545524332303a206c6f772d6c6576656c2063616c6c206661696c6564815250856001600160a01b03166128b89092919063ffffffff16565b805190915015610ad8578080602001905181019061259c919061316d565b610ad85760405162461bcd60e51b8152600401610a2090613d84565b6000610cd883836128c7565b6000610cd883836128df565b6000610cd883836129a5565b6000611f1d84846001600160a01b0385166129ef565b6125fc8383612a86565b612609600084848461275d565b610ad85760405162461bcd60e51b8152600401610a209061349d565b815460009082106126485760405162461bcd60e51b8152600401610a2090613424565b82600001828154811061265757fe5b9060005260206000200154905092915050565b6000818484111561268e5760405162461bcd60e51b8152600401610a209190613411565b505050900390565b6000610cd88383612b4a565b8154600090819083106126c75760405162461bcd60e51b8152600401610a209061394e565b60008460000184815481106126d857fe5b906000526020600020906002020190508060000154816001015492509250509250929050565b6000828152600184016020526040812054828161272e5760405162461bcd60e51b8152600401610a209190613411565b5084600001600182038154811061274157fe5b9060005260206000209060020201600101549150509392505050565b6000612771846001600160a01b0316612c1e565b61277d57506001611f1d565b6060612805630a85bd0160e11b612792611da9565b8887876040516024016127a894939291906133b0565b604051602081830303815290604052906001600160e01b0319166020820180516001600160e01b038381831617835250505050604051806060016040528060328152602001613f3e603291396001600160a01b03881691906128b8565b905060008180602001905181019061281d91906131a5565b6001600160e01b031916630a85bd0160e11b1492505050949350505050565b60008261284b57506000610bfd565b8282028284828161285857fe5b0414610cd85760405162461bcd60e51b8152600401610a20906139fc565b6000610cd883836040518060400160405280601a81526020017f536166654d6174683a206469766973696f6e206279207a65726f000000000000815250612c24565b6060611f1d8484600085612c5b565b60009081526001919091016020526040902054151590565b6000818152600183016020526040812054801561299b578354600019808301919081019060009087908390811061291257fe5b906000526020600020015490508087600001848154811061292f57fe5b60009182526020808320909101929092558281526001898101909252604090209084019055865487908061295f57fe5b60019003818190600052602060002001600090559055866001016000878152602001908152602001600020600090556001945050505050610bfd565b6000915050610bfd565b60006129b183836128c7565b6129e757508154600181810184556000848152602080822090930184905584548482528286019093526040902091909155610bfd565b506000610bfd565b600082815260018401602052604081205480612a54575050604080518082018252838152602080820184815286546001818101895560008981528481209551600290930290950191825591519082015586548684528188019092529290912055610cd8565b82856000016001830381548110612a6757fe5b9060005260206000209060020201600101819055506000915050610cd8565b6001600160a01b038216612aac5760405162461bcd60e51b8152600401610a2090613990565b612ab581611e1a565b15612ad25760405162461bcd60e51b8152600401610a209061356c565b612ade60008383610ad8565b6001600160a01b0382166000908152600160205260409020612b0090826125d0565b50612b0d600282846125dc565b5060405181906001600160a01b038416906000907fddf252ad1be2c89b69c2b068fc378daa952ba7f163c4a11628f55a4df523b3ef908290a45050565b6000818152600183016020526040812054801561299b5783546000198083019190810190600090879083908110612b7d57fe5b9060005260206000209060020201905080876000018481548110612b9d57fe5b600091825260208083208454600290930201918255600193840154918401919091558354825289830190526040902090840190558654879080612bdc57fe5b6000828152602080822060026000199094019384020182815560019081018390559290935588815289820190925260408220919091559450610bfd9350505050565b3b151590565b60008183612c455760405162461bcd60e51b8152600401610a209190613411565b506000838581612c5157fe5b0495945050505050565b606082471015612c7d5760405162461bcd60e51b8152600401610a2090613782565b612c8685612c1e565b612ca25760405162461bcd60e51b8152600401610a2090613ce8565b60006060866001600160a01b03168587604051612cbf91906132ff565b60006040518083038185875af1925050503d8060008114612cfc576040519150601f19603f3d011682016040523d82523d6000602084013e612d01565b606091505b5091509150612d11828286612d1c565b979650505050505050565b60608315612d2b575081610cd8565b825115612d3b5782518084602001fd5b8160405162461bcd60e51b8152600401610a209190613411565b828054600181600116156101000203166002900490600052602060002090601f016020900481019282601f10612d9657805160ff1916838001178555612dc3565b82800160010185558215612dc3579182015b82811115612dc3578251825591602001919060010190612da8565b50612dcf929150612e1a565b5090565b50805460018160011615610100020316600290046000825580601f10612df95750612e17565b601f016020900490600052602060002090810190612e179190612e1a565b50565b5b80821115612dcf5760008155600101612e1b565b80356001600160a01b0381168114610bfd57600080fd5b600082601f830112612e56578081fd5b8135612e69612e6482613eb8565b613e91565b818152915060208083019084810181840286018201871015612e8a57600080fd5b60005b84811015612ea957813584529282019290820190600101612e8d565b505050505092915050565b600082601f830112612ec4578081fd5b813567ffffffffffffffff811115612eda578182fd5b612eed601f8201601f1916602001613e91565b9150808252836020828501011115612f0457600080fd5b8060208401602084013760009082016020015292915050565b600060208284031215612f2e578081fd5b610cd88383612e2f565b60008060408385031215612f4a578081fd5b612f548484612e2f565b9150612f638460208501612e2f565b90509250929050565b600080600060608486031215612f80578081fd5b8335612f8b81613f04565b92506020840135612f9b81613f04565b929592945050506040919091013590565b60008060008060808587031215612fc1578081fd5b612fcb8686612e2f565b9350612fda8660208701612e2f565b925060408501359150606085013567ffffffffffffffff811115612ffc578182fd5b61300887828801612eb4565b91505092959194509250565b60008060408385031215613026578182fd5b6130308484612e2f565b9150602083013561304081613f19565b809150509250929050565b6000806040838503121561305d578182fd5b6130678484612e2f565b946020939093013593505050565b60008060408385031215613087578182fd5b823567ffffffffffffffff81111561309d578283fd5b8301601f810185136130ad578283fd5b80356130bb612e6482613eb8565b81815260208082019190848101875b858110156130f3576130e18b8484358a0101612eb4565b855293820193908201906001016130ca565b5091999701359750505050505050565b600080600060608486031215613117578283fd5b833567ffffffffffffffff8082111561312e578485fd5b61313a87838801612e46565b9450602086013593506040860135915080821115613156578283fd5b5061316386828701612e46565b9150509250925092565b60006020828403121561317e578081fd5b8151610cd881613f19565b60006020828403121561319a578081fd5b8135610cd881613f27565b6000602082840312156131b6578081fd5b8151610cd881613f27565b600080604083850312156131d3578182fd5b823567ffffffffffffffff808211156131ea578384fd5b6131f686838701612eb4565b9350602085013591508082111561320b578283fd5b5061321885828601612eb4565b9150509250929050565b600060208284031215613233578081fd5b5035919050565b6000806040838503121561324c578182fd5b82359150602083013567ffffffffffffffff811115613269578182fd5b61321885828601612eb4565b60008060408385031215613287578182fd5b50508035926020909101359150565b6000806000606084860312156132aa578081fd5b8335925060208401359150604084013560ff811681146132c8578182fd5b809150509250925092565b600081518084526132eb816020860160208601613ed8565b601f01601f19169290920160200192915050565b60008251613311818460208701613ed8565b9190910192915050565b600080845460018082166000811461333a576001811461335157613380565b60ff198316865260028304607f1686019350613380565b600283048886526020808720875b838110156133785781548a82015290850190820161335f565b505050860193505b5050508351613393818360208801613ed8565b01949350505050565b6001600160a01b0391909116815260200190565b6001600160a01b03858116825284166020820152604081018390526080606082018190526000906133e3908301846132d3565b9695505050505050565b6001600160a01b03929092168252602082015260400190565b901515815260200190565b600060208252610cd860208301846132d3565b60208082526022908201527f456e756d657261626c655365743a20696e646578206f7574206f6620626f756e604082015261647360f01b606082015260800190565b6020808252601a908201527f2052656d6f766520746f6b656e2066726f6d206c697374696e67000000000000604082015260600190565b60208082526032908201527f4552433732313a207472616e7366657220746f206e6f6e20455243373231526560408201527131b2b4bb32b91034b6b83632b6b2b73a32b960711b606082015260800190565b60208082526018908201527f43616e206e6f7420627579207768617420796f75206f776e0000000000000000604082015260600190565b60208082526026908201527f4f776e61626c653a206e6577206f776e657220697320746865207a65726f206160408201526564647265737360d01b606082015260800190565b6020808252601c908201527f4552433732313a20746f6b656e20616c7265616479206d696e74656400000000604082015260600190565b6020808252601f908201527f5468697320746f6b656e206973206e6f74206f6e20616e2061756374696f6e00604082015260600190565b602080825260149082015273125d081a5cc8185b1c9958591e481b1a5cdd195960621b604082015260600190565b6020808252601b908201527f536166654d6174683a206164646974696f6e206f766572666c6f770000000000604082015260600190565b60208082526024908201527f4552433732313a207472616e7366657220746f20746865207a65726f206164646040820152637265737360e01b606082015260800190565b60208082526019908201527f4552433732313a20617070726f766520746f2063616c6c657200000000000000604082015260600190565b60208082526028908201527f596f752063616e2774206275792e205468697320746f6b656e206973206f6e2060408201526720bab1ba34b7b71760c11b606082015260800190565b602080825260129082015271115c9c9bdc8b081ddc9bdb99c81b999d125960721b604082015260600190565b60208082526034908201527f596f7520617265206e6f7420746865206f776e6572206f6620736f6d65206f726040820152731030b6361037b3103a3434b9903a37b5b2b7399760611b606082015260800190565b60208082526026908201527f416464726573733a20696e73756666696369656e742062616c616e636520666f6040820152651c8818d85b1b60d21b606082015260800190565b6020808252602c908201527f4552433732313a206f70657261746f7220717565727920666f72206e6f6e657860408201526b34b9ba32b73a103a37b5b2b760a11b606082015260800190565b6020808252601590820152742a3434b99034b9903737ba103a34329037bbb732b960591b604082015260600190565b6020808252601f908201527f4f6e6c79204f776e65722043616e205570646174652074686520707269636500604082015260600190565b60208082526038908201527f4552433732313a20617070726f76652063616c6c6572206973206e6f74206f7760408201527f6e6572206e6f7220617070726f76656420666f7220616c6c0000000000000000606082015260800190565b6020808252602a908201527f4552433732313a2062616c616e636520717565727920666f7220746865207a65604082015269726f206164647265737360b01b606082015260800190565b60208082526013908201527227b7363c9027bbb732b91021b0b710213ab93760691b604082015260600190565b60208082526022908201527f456e756d657261626c654d61703a20696e646578206f7574206f6620626f756e604082015261647360f01b606082015260800190565b6020808252818101527f4552433732313a206d696e7420746f20746865207a65726f2061646472657373604082015260600190565b6020808252601b908201527f4f6e6c79204f776e65722043616e2073657420746865206e616d650000000000604082015260600190565b60208082526021908201527f536166654d6174683a206d756c7469706c69636174696f6e206f766572666c6f6040820152607760f81b606082015260800190565b6020808252602c908201527f4552433732313a20617070726f76656420717565727920666f72206e6f6e657860408201526b34b9ba32b73a103a37b5b2b760a11b606082015260800190565b6020808252602c908201527f4552433732314d657461646174613a2055524920736574206f66206e6f6e657860408201526b34b9ba32b73a103a37b5b2b760a11b606082015260800190565b6020808252818101527f4f776e61626c653a2063616c6c6572206973206e6f7420746865206f776e6572604082015260600190565b60208082526029908201527f4552433732313a207472616e73666572206f6620746f6b656e2074686174206960408201526839903737ba1037bbb760b91b606082015260800190565b6020808252602f908201527f4552433732314d657461646174613a2055524920717565727920666f72206e6f60408201526e3732bc34b9ba32b73a103a37b5b2b760891b606082015260800190565b60208082526026908201527f596f752063616e27742063616e63656c207768656e20796f752068617665206260408201526569646465727360d01b606082015260800190565b6020808252601c908201527f4572726f722c746f6b656e496420646f6573206e6f7420657869737400000000604082015260600190565b60208082526021908201527f4552433732313a20617070726f76616c20746f2063757272656e74206f776e656040820152603960f91b606082015260800190565b6020808252601f908201527f5468697320746f6b656e206973206e6f74206f6e20616e2041756374696f6e00604082015260600190565b60208082526031908201527f4552433732313a207472616e736665722063616c6c6572206973206e6f74206f6040820152701ddb995c881b9bdc88185c1c1c9bdd9959607a1b606082015260800190565b6020808252601d908201527f416464726573733a2063616c6c20746f206e6f6e2d636f6e7472616374000000604082015260600190565b602080825260149082015273115c9c9bdc8b081ddc9bdb99c81d1bdad95b925960621b604082015260600190565b60208082526019908201527f4974656d206e6f74206c69737465642063757272656e746c7900000000000000604082015260600190565b6020808252602a908201527f5361666545524332303a204552433230206f7065726174696f6e20646964206e6040820152691bdd081cdd58d8d9595960b21b606082015260800190565b6020808252601a908201527f4572726f722c2074686520616d6f756e74206973206c6f776572000000000000604082015260600190565b90815260200190565b9182521515602082015260400190565b918252602082015260400190565b600084825283602083015260606040830152613e4b60608301846132d3565b95945050505050565b9283526020830191909152604082015260600190565b928352602083019190915260ff16604082015260600190565b60ff91909116815260200190565b60405181810167ffffffffffffffff81118282101715613eb057600080fd5b604052919050565b600067ffffffffffffffff821115613ece578081fd5b5060209081020190565b60005b83811015613ef3578181015183820152602001613edb565b838111156111735750506000910152565b6001600160a01b0381168114612e1757600080fd5b8015158114612e1757600080fd5b6001600160e01b031981168114612e1757600080fdfe4552433732313a207472616e7366657220746f206e6f6e20455243373231526563656976657220696d706c656d656e7465724552433732313a206f776e657220717565727920666f72206e6f6e6578697374656e7420746f6b656ea26469706673582212200dda6299b57991ecfb7545b2e92ce1cb87ee4525e9ee2c26b12bb4b8d1c3e9c964736f6c634300060c0033",
    "sourcePath": "c:/Users/yazilim5/Desktop/Yeni klasr/BlokistaNFT.sol",
    "compiler": {
        "name": "solc",
        "version": "0.6.12+commit.27d51765"
    },
    "functionHashes": {
        "acceptOffer(uint256)": "c815729d",
        "approve(address,uint256)": "095ea7b3",
        "balanceOf(address)": "70a08231",
        "baseURI()": "6c0360eb",
        "burn(uint256)": "42966c68",
        "buy(uint256)": "d96a094a",
        "cancelAuction(uint256)": "96b5a755",
        "createAuction(uint256,uint256,uint8)": "c3d671cb",
        "feeAddress()": "41275358",
        "feePercent()": "7fd6f15c",
        "getApproved(uint256)": "081812fc",
        "getNftId(uint256)": "706e9ba9",
        "getNftName(uint256)": "278ec44f",
        "getNftNameOfTokenId(uint256)": "d3617354",
        "getStatus(uint256)": "5c622a0e",
        "haveListed(uint256)": "6837f403",
        "isApprovedForAll(address,address)": "e985e9c5",
        "justSell(uint256[],uint256,uint256[])": "8972263b",
        "makeOffer(uint256,uint256)": "05b7cdd3",
        "minBidIncrease(uint256)": "83e218e7",
        "mint(string,string)": "8aa0fdad",
        "multipleMint(string[],uint256)": "2528115b",
        "name()": "06fdde03",
        "nftBurnCount(uint256)": "121f6a3a",
        "nftCount(uint256)": "023f1532",
        "onAuction(uint256)": "37eb130c",
        "owner()": "8da5cb5b",
        "ownerOf(uint256)": "6352211e",
        "price(uint256)": "26a49e37",
        "renounceOwnership()": "715018a6",
        "safeTransferFrom(address,address,uint256)": "42842e0e",
        "safeTransferFrom(address,address,uint256,bytes)": "b88d4fde",
        "setApprovalForAll(address,bool)": "a22cb465",
        "setFee(address,uint256)": "e55156b5",
        "setNftName(uint256,string)": "ee056e1d",
        "supportsInterface(bytes4)": "01ffc9a7",
        "symbol()": "95d89b41",
        "tokenByIndex(uint256)": "4f6ccce7",
        "tokenOfOwnerByIndex(address,uint256)": "2f745c59",
        "tokenURI(uint256)": "c87b56dd",
        "totalSupply()": "18160ddd",
        "transferFrom(address,address,uint256)": "23b872dd",
        "transferOwnership(address)": "f2fde38b",
        "updatePriceAsOwner(uint256,uint256)": "edb4942a",
        "wbnb()": "8d72647e"
    },
    "gasEstimates": {
        "creation": {
            "codeDepositCost": "3266800",
            "executionCost": "infinite",
            "totalCost": "infinite"
        },
        "external": {
            "acceptOffer(uint256)": "infinite",
            "approve(address,uint256)": "infinite",
            "balanceOf(address)": "infinite",
            "baseURI()": "infinite",
            "burn(uint256)": "infinite",
            "buy(uint256)": "infinite",
            "cancelAuction(uint256)": "infinite",
            "createAuction(uint256,uint256,uint8)": "infinite",
            "feeAddress()": "1182",
            "feePercent()": "1140",
            "getApproved(uint256)": "2372",
            "getNftId(uint256)": "1217",
            "getNftName(uint256)": "infinite",
            "getNftNameOfTokenId(uint256)": "infinite",
            "getStatus(uint256)": "2208",
            "haveListed(uint256)": "1316",
            "isApprovedForAll(address,address)": "infinite",
            "justSell(uint256[],uint256,uint256[])": "infinite",
            "makeOffer(uint256,uint256)": "infinite",
            "minBidIncrease(uint256)": "1323",
            "mint(string,string)": "infinite",
            "multipleMint(string[],uint256)": "infinite",
            "name()": "infinite",
            "nftBurnCount(uint256)": "1239",
            "nftCount(uint256)": "1240",
            "onAuction(uint256)": "1273",
            "owner()": "1181",
            "ownerOf(uint256)": "infinite",
            "price(uint256)": "1327",
            "renounceOwnership()": "24291",
            "safeTransferFrom(address,address,uint256)": "infinite",
            "safeTransferFrom(address,address,uint256,bytes)": "infinite",
            "setApprovalForAll(address,bool)": "infinite",
            "setFee(address,uint256)": "42148",
            "setNftName(uint256,string)": "infinite",
            "supportsInterface(bytes4)": "1341",
            "symbol()": "infinite",
            "tokenByIndex(uint256)": "3871",
            "tokenOfOwnerByIndex(address,uint256)": "infinite",
            "tokenURI(uint256)": "infinite",
            "totalSupply()": "1193",
            "transferFrom(address,address,uint256)": "infinite",
            "transferOwnership(address)": "24598",
            "updatePriceAsOwner(uint256,uint256)": "infinite",
            "wbnb()": "1159"
        },
        "internal": {
            "_justTrade(uint256)": "infinite",
            "_trade(uint256)": "infinite",
            "increaseBid(uint256,uint256)": "20899"
        }
    }
}