{
    "contractName": "BlokistaNFT",
    "abi": [
        {
            "inputs": [
                {
                    "internalType": "address",
                    "name": "_wbnb",
                    "type": "address"
                },
                {
                    "internalType": "address",
                    "name": "_vault",
                    "type": "address"
                }
            ],
            "stateMutability": "nonpayable",
            "type": "constructor"
        },
        {
            "anonymous": false,
            "inputs": [
                {
                    "indexed": true,
                    "internalType": "address",
                    "name": "previousOwner",
                    "type": "address"
                },
                {
                    "indexed": true,
                    "internalType": "address",
                    "name": "newOwner",
                    "type": "address"
                },
                {
                    "indexed": false,
                    "internalType": "uint256",
                    "name": "price",
                    "type": "uint256"
                },
                {
                    "indexed": false,
                    "internalType": "uint256",
                    "name": "tokenID",
                    "type": "uint256"
                },
                {
                    "indexed": false,
                    "internalType": "string",
                    "name": "uri",
                    "type": "string"
                }
            ],
            "name": "AuctionEnded",
            "type": "event"
        },
        {
            "anonymous": false,
            "inputs": [
                {
                    "indexed": true,
                    "internalType": "address",
                    "name": "owner",
                    "type": "address"
                },
                {
                    "indexed": false,
                    "internalType": "uint256",
                    "name": "tokenID",
                    "type": "uint256"
                },
                {
                    "indexed": false,
                    "internalType": "uint256",
                    "name": "openingPrice",
                    "type": "uint256"
                },
                {
                    "indexed": false,
                    "internalType": "uint8",
                    "name": "minimumBidOfferIncreasePercent",
                    "type": "uint8"
                }
            ],
            "name": "AuctionStarted",
            "type": "event"
        },
        {
            "anonymous": false,
            "inputs": [
                {
                    "indexed": true,
                    "internalType": "address",
                    "name": "previousOwner",
                    "type": "address"
                },
                {
                    "indexed": true,
                    "internalType": "address",
                    "name": "newOwner",
                    "type": "address"
                },
                {
                    "indexed": false,
                    "internalType": "uint256",
                    "name": "price",
                    "type": "uint256"
                },
                {
                    "indexed": false,
                    "internalType": "uint256",
                    "name": "tokenID",
                    "type": "uint256"
                },
                {
                    "indexed": false,
                    "internalType": "string",
                    "name": "uri",
                    "type": "string"
                }
            ],
            "name": "JustPurchased",
            "type": "event"
        },
        {
            "anonymous": false,
            "inputs": [
                {
                    "indexed": true,
                    "internalType": "address",
                    "name": "owner",
                    "type": "address"
                },
                {
                    "indexed": false,
                    "internalType": "uint256",
                    "name": "tokenID",
                    "type": "uint256"
                },
                {
                    "indexed": false,
                    "internalType": "uint256",
                    "name": "price",
                    "type": "uint256"
                }
            ],
            "name": "MadeOffer",
            "type": "event"
        },
        {
            "anonymous": false,
            "inputs": [
                {
                    "indexed": true,
                    "internalType": "address",
                    "name": "owner",
                    "type": "address"
                },
                {
                    "indexed": false,
                    "internalType": "uint256",
                    "name": "nftID",
                    "type": "uint256"
                },
                {
                    "indexed": false,
                    "internalType": "bool",
                    "name": "listedOrNot",
                    "type": "bool"
                }
            ],
            "name": "NftListStatus",
            "type": "event"
        },
        {
            "anonymous": false,
            "inputs": [
                {
                    "indexed": true,
                    "internalType": "address",
                    "name": "previousOwner",
                    "type": "address"
                },
                {
                    "indexed": true,
                    "internalType": "address",
                    "name": "newOwner",
                    "type": "address"
                }
            ],
            "name": "OwnershipTransferred",
            "type": "event"
        },
        {
            "anonymous": false,
            "inputs": [
                {
                    "indexed": true,
                    "internalType": "address",
                    "name": "owner",
                    "type": "address"
                },
                {
                    "indexed": false,
                    "internalType": "uint256",
                    "name": "oldPrice",
                    "type": "uint256"
                },
                {
                    "indexed": false,
                    "internalType": "uint256",
                    "name": "newPrice",
                    "type": "uint256"
                },
                {
                    "indexed": false,
                    "internalType": "uint256",
                    "name": "tokenID",
                    "type": "uint256"
                }
            ],
            "name": "PriceUpdated",
            "type": "event"
        },
        {
            "inputs": [],
            "name": "BlokistaVault",
            "outputs": [
                {
                    "internalType": "address",
                    "name": "",
                    "type": "address"
                }
            ],
            "stateMutability": "view",
            "type": "function"
        },
        {
            "inputs": [
                {
                    "internalType": "uint256",
                    "name": "_id",
                    "type": "uint256"
                }
            ],
            "name": "acceptOffer",
            "outputs": [],
            "stateMutability": "nonpayable",
            "type": "function"
        },
        {
            "inputs": [],
            "name": "adminFeeAddress",
            "outputs": [
                {
                    "internalType": "address",
                    "name": "",
                    "type": "address"
                }
            ],
            "stateMutability": "view",
            "type": "function"
        },
        {
            "inputs": [
                {
                    "internalType": "uint256",
                    "name": "_tokenId",
                    "type": "uint256"
                }
            ],
            "name": "burn",
            "outputs": [],
            "stateMutability": "nonpayable",
            "type": "function"
        },
        {
            "inputs": [
                {
                    "internalType": "uint256",
                    "name": "_tokenId",
                    "type": "uint256"
                }
            ],
            "name": "buy",
            "outputs": [],
            "stateMutability": "payable",
            "type": "function"
        },
        {
            "inputs": [
                {
                    "internalType": "uint256",
                    "name": "_tokenId",
                    "type": "uint256"
                }
            ],
            "name": "cancelAuction",
            "outputs": [],
            "stateMutability": "nonpayable",
            "type": "function"
        },
        {
            "inputs": [
                {
                    "internalType": "uint256",
                    "name": "_tokenId",
                    "type": "uint256"
                },
                {
                    "internalType": "uint256",
                    "name": "_price",
                    "type": "uint256"
                },
                {
                    "internalType": "uint8",
                    "name": "_minBidIncreasePercent",
                    "type": "uint8"
                }
            ],
            "name": "createAuction",
            "outputs": [],
            "stateMutability": "nonpayable",
            "type": "function"
        },
        {
            "inputs": [],
            "name": "feePercent",
            "outputs": [
                {
                    "internalType": "uint256",
                    "name": "",
                    "type": "uint256"
                }
            ],
            "stateMutability": "view",
            "type": "function"
        },
        {
            "inputs": [
                {
                    "internalType": "uint256[]",
                    "name": "_tokenIdler",
                    "type": "uint256[]"
                },
                {
                    "internalType": "uint256",
                    "name": "_numberOfCopy",
                    "type": "uint256"
                },
                {
                    "internalType": "uint256[]",
                    "name": "prices",
                    "type": "uint256[]"
                }
            ],
            "name": "justSell",
            "outputs": [],
            "stateMutability": "nonpayable",
            "type": "function"
        },
        {
            "inputs": [
                {
                    "internalType": "uint256",
                    "name": "_tokenId",
                    "type": "uint256"
                },
                {
                    "internalType": "uint256",
                    "name": "_offer",
                    "type": "uint256"
                }
            ],
            "name": "makeOffer",
            "outputs": [],
            "stateMutability": "payable",
            "type": "function"
        },
        {
            "inputs": [],
            "name": "owner",
            "outputs": [
                {
                    "internalType": "address",
                    "name": "",
                    "type": "address"
                }
            ],
            "stateMutability": "view",
            "type": "function"
        },
        {
            "inputs": [],
            "name": "renounceOwnership",
            "outputs": [],
            "stateMutability": "nonpayable",
            "type": "function"
        },
        {
            "inputs": [
                {
                    "internalType": "address",
                    "name": "newOwner",
                    "type": "address"
                }
            ],
            "name": "transferOwnership",
            "outputs": [],
            "stateMutability": "nonpayable",
            "type": "function"
        },
        {
            "inputs": [
                {
                    "internalType": "uint256",
                    "name": "_tokenId",
                    "type": "uint256"
                },
                {
                    "internalType": "uint256",
                    "name": "_price",
                    "type": "uint256"
                }
            ],
            "name": "updatePriceAsOwner",
            "outputs": [],
            "stateMutability": "nonpayable",
            "type": "function"
        },
        {
            "inputs": [],
            "name": "wbnb",
            "outputs": [
                {
                    "internalType": "address",
                    "name": "",
                    "type": "address"
                }
            ],
            "stateMutability": "view",
            "type": "function"
        }
    ],
    "bytecode": "6080604052600a6004553480156200001657600080fd5b5060405162003302380380620033028339810160408190526200003991620000de565b600062000045620000da565b600080546001600160a01b0319166001600160a01b0383169081178255604051929350917f8be0079c531659141344cd1fd0a4f28419497f9722a3daafe3b4186f6b6457e0908290a35062000099620000da565b600380546001600160a01b03199081166001600160a01b03938416179091556002805482169483169490941790935560018054909316911617905562000135565b3390565b60008060408385031215620000f1578182fd5b8251620000fe816200011c565b602084015190925062000111816200011c565b809150509250929050565b6001600160a01b03811681146200013257600080fd5b50565b6131bd80620001456000396000f3fe6080604052600436106100e85760003560e01c80638d72647e1161008a578063c815729d11610059578063c815729d14610223578063d96a094a14610243578063edb4942a14610256578063f2fde38b14610276576100e8565b80638d72647e146101b95780638da5cb5b146101ce57806396b5a755146101e3578063c3d671cb14610203576100e8565b806359261f13116100c657806359261f131461014d578063715018a6146101625780637fd6f15c146101775780638972263b14610199576100e8565b806305b7cdd3146100ed57806308a171491461010257806342966c681461012d575b600080fd5b6101006100fb366004612b17565b610296565b005b34801561010e57600080fd5b50610117610675565b6040516101249190612bd4565b60405180910390f35b34801561013957600080fd5b50610100610148366004612ae7565b610684565b34801561015957600080fd5b50610117610a46565b34801561016e57600080fd5b50610100610a55565b34801561018357600080fd5b5061018c610ad4565b6040516101249190613048565b3480156101a557600080fd5b506101006101b43660046129d1565b610ada565b3480156101c557600080fd5b50610117610d74565b3480156101da57600080fd5b50610117610d83565b3480156101ef57600080fd5b506101006101fe366004612ae7565b610d92565b34801561020f57600080fd5b5061010061021e366004612b38565b611034565b34801561022f57600080fd5b5061010061023e366004612ae7565b6112f6565b610100610251366004612ae7565b61170b565b34801561026257600080fd5b50610100610271366004612b17565b611b36565b34801561028257600080fd5b50610100610291366004612999565b611d05565b818160006102a2611dbb565b600154604051630206124560e51b81529192506001600160a01b0316906340c248a0906102d790869086908690600401613097565b60206040518083038186803b1580156102ef57600080fd5b505afa158015610303573d6000803e3d6000fd5b505050506040513d601f19601f820116820180604052508101906103279190612a3b565b50833410156103515760405162461bcd60e51b815260040161034890612fcf565b60405180910390fd5b600154604051634fa7b50760e01b81526000916001600160a01b031690634fa7b50790610382908990600401613048565b60206040518083038186803b15801561039a57600080fd5b505afa1580156103ae573d6000803e3d6000fd5b505050506040513d601f19601f820116820180604052508101906103d291906129b5565b600154604051630e75722360e41b81529192506000916001600160a01b039091169063e757223090610408908a90600401613048565b60206040518083038186803b15801561042057600080fd5b505afa158015610434573d6000803e3d6000fd5b505050506040513d601f19601f820116820180604052508101906104589190612aff565b6001549091506001600160a01b03166346e1adf588610475611dbb565b6040518363ffffffff1660e01b8152600401610492929190613051565b600060405180830381600087803b1580156104ac57600080fd5b505af11580156104c0573d6000803e3d6000fd5b505050506001600160a01b038216156104ea576002546104ea906001600160a01b03168383611dbf565b600260009054906101000a90046001600160a01b03166001600160a01b031663d0e30db0876040518263ffffffff1660e01b81526004016000604051808303818588803b15801561053a57600080fd5b505af115801561054e573d6000803e3d6000fd5b505050505061055d8787611e1a565b508534111561062257600154604051634fa7b50760e01b81526001600160a01b0390911690634fa7b50790610596908a90600401613048565b60206040518083038186803b1580156105ae57600080fd5b505afa1580156105c2573d6000803e3d6000fd5b505050506040513d601f19601f820116820180604052508101906105e691906129b5565b6001600160a01b03166108fc8734039081150290604051600060405180830381858888f19350505050158015610620573d6000803e3d6000fd5b505b61062a611dbb565b6001600160a01b03167f94a2783ad36ddb2d3595443740ccce312a6cc92594d9ce08ca6ea84a3d16b7f88888604051610664929190613089565b60405180910390a250505050505050565b6003546001600160a01b031681565b60015481906001600160a01b0316631b55482d826106a0611dbb565b6040518363ffffffff1660e01b81526004016106bd929190613051565b60206040518083038186803b1580156106d557600080fd5b505afa1580156106e9573d6000803e3d6000fd5b505050506040513d601f19601f8201168201806040525081019061070d9190612a3b565b6107295760405162461bcd60e51b815260040161034890612c6f565b600154604051632e31150760e11b81526001600160a01b0390911690635c622a0e90610759908590600401613048565b60206040518083038186803b15801561077157600080fd5b505afa158015610785573d6000803e3d6000fd5b505050506040513d601f19601f820116820180604052508101906107a99190612b70565b60ff16156107c95760405162461bcd60e51b815260040161034890612c38565b60015460405163706e9ba960e01b81526000916001600160a01b03169063706e9ba9906107fa908690600401613048565b60206040518083038186803b15801561081257600080fd5b505afa158015610826573d6000803e3d6000fd5b505050506040513d601f19601f8201168201806040525081019061084a9190612aff565b6001805460405163c07aad7d60e01b81529293506000926108da92916001600160a01b03169063c07aad7d90610884908790600401613048565b60206040518083038186803b15801561089c57600080fd5b505afa1580156108b0573d6000803e3d6000fd5b505050506040513d601f19601f820116820180604052508101906108d49190612aff565b90611f0e565b6001805460405163cac7f3a760e01b815292935060009261091492916001600160a01b03169063cac7f3a790610884908890600401613048565b60015460405163399d0ac160e01b81529192506001600160a01b03169063399d0ac1906109479086908690600401613089565b600060405180830381600087803b15801561096157600080fd5b505af1158015610975573d6000803e3d6000fd5b505060015460405163eb88566160e01b81526001600160a01b03909116925063eb88566191506109ab9086908590600401613089565b600060405180830381600087803b1580156109c557600080fd5b505af11580156109d9573d6000803e3d6000fd5b505060015460405163479cd8cf60e01b81526001600160a01b03909116925063479cd8cf9150610a0d908890600401613048565b600060405180830381600087803b158015610a2757600080fd5b505af1158015610a3b573d6000803e3d6000fd5b505050505050505050565b6001546001600160a01b031681565b610a5d611dbb565b6000546001600160a01b03908116911614610a8a5760405162461bcd60e51b815260040161034890612e71565b600080546040516001600160a01b03909116907f8be0079c531659141344cd1fd0a4f28419497f9722a3daafe3b4186f6b6457e0908390a3600080546001600160a01b0319169055565b60045481565b60005b82811015610d6e5760015484516001600160a01b0390911690635c622a0e90869084908110610b0857fe5b60200260200101516040518263ffffffff1660e01b8152600401610b2c9190613048565b60206040518083038186803b158015610b4457600080fd5b505afa158015610b58573d6000803e3d6000fd5b505050506040513d601f19601f82011682018060405250810190610b7c9190612b70565b60ff1615610b9c5760405162461bcd60e51b815260040161034890612dee565b60015484516001600160a01b0390911690631b55482d90869084908110610bbf57fe5b6020026020010151610bcf611dbb565b6040518363ffffffff1660e01b8152600401610bec929190613051565b60206040518083038186803b158015610c0457600080fd5b505afa158015610c18573d6000803e3d6000fd5b505050506040513d601f19601f82011682018060405250810190610c3c9190612a3b565b610c585760405162461bcd60e51b815260040161034890612fa4565b60015484516001600160a01b039091169063f7d9757790869084908110610c7b57fe5b6020026020010151848481518110610c8f57fe5b60200260200101516040518363ffffffff1660e01b8152600401610cb4929190613089565b600060405180830381600087803b158015610cce57600080fd5b505af1158015610ce2573d6000803e3d6000fd5b505060015486516001600160a01b03909116925063d896dd649150869084908110610d0957fe5b602002602001015160026040518363ffffffff1660e01b8152600401610d30929190613078565b600060405180830381600087803b158015610d4a57600080fd5b505af1158015610d5e573d6000803e3d6000fd5b505060019092019150610add9050565b50505050565b6002546001600160a01b031681565b6000546001600160a01b031690565b60015481906001600160a01b0316631b55482d82610dae611dbb565b6040518363ffffffff1660e01b8152600401610dcb929190613051565b60206040518083038186803b158015610de357600080fd5b505afa158015610df7573d6000803e3d6000fd5b505050506040513d601f19601f82011682018060405250810190610e1b9190612a3b565b610e375760405162461bcd60e51b815260040161034890612c6f565b600154604051634fa7b50760e01b81526000916001600160a01b031690634fa7b50790610e68908690600401613048565b60206040518083038186803b158015610e8057600080fd5b505afa158015610e94573d6000803e3d6000fd5b505050506040513d601f19601f82011682018060405250810190610eb891906129b5565b6001600160a01b031614610ede5760405162461bcd60e51b815260040161034890612ea6565b600154604051632e31150760e11b81526001600160a01b0390911690635c622a0e90610f0e908590600401613048565b60206040518083038186803b158015610f2657600080fd5b505afa158015610f3a573d6000803e3d6000fd5b505050506040513d601f19601f82011682018060405250810190610f5e9190612b70565b60ff16600114610f805760405162461bcd60e51b815260040161034890612ce0565b600154604051633625b75960e21b81526001600160a01b039091169063d896dd6490610fb3908590600090600401613078565b600060405180830381600087803b158015610fcd57600080fd5b505af1158015610fe1573d6000803e3d6000fd5b50505050610fed611dbb565b6001600160a01b03167f3fd63d9ca8dc693a1b9911e664951294721009a4f6239c862d6719a160a1edfc836000604051611028929190613068565b60405180910390a25050565b60015483906001600160a01b0316631b55482d82611050611dbb565b6040518363ffffffff1660e01b815260040161106d929190613051565b60206040518083038186803b15801561108557600080fd5b505afa158015611099573d6000803e3d6000fd5b505050506040513d601f19601f820116820180604052508101906110bd9190612a3b565b6110d95760405162461bcd60e51b815260040161034890612c6f565b600154604051632e31150760e11b81526001600160a01b0390911690635c622a0e90611109908790600401613048565b60206040518083038186803b15801561112157600080fd5b505afa158015611135573d6000803e3d6000fd5b505050506040513d601f19601f820116820180604052508101906111599190612b70565b60ff16156111795760405162461bcd60e51b815260040161034890612d17565b60015460405163609ded4760e11b81526001600160a01b039091169063c13bda8e906111ab9087908690600401613078565b600060405180830381600087803b1580156111c557600080fd5b505af11580156111d9573d6000803e3d6000fd5b505060018054604051633625b75960e21b81526001600160a01b03909116935063d896dd64925061120e918891600401613078565b600060405180830381600087803b15801561122857600080fd5b505af115801561123c573d6000803e3d6000fd5b505060015460405163f7d9757760e01b81526001600160a01b03909116925063f7d9757791506112729087908790600401613089565b600060405180830381600087803b15801561128c57600080fd5b505af11580156112a0573d6000803e3d6000fd5b505050506112ac611dbb565b6001600160a01b03167f0be3af8795bf2ba623b6c9bcf86ce732d1ed0fcf6da3ee178c00e7f7d6f6a47b8585856040516112e8939291906130f4565b60405180910390a250505050565b60015481906001600160a01b0316631b55482d82611312611dbb565b6040518363ffffffff1660e01b815260040161132f929190613051565b60206040518083038186803b15801561134757600080fd5b505afa15801561135b573d6000803e3d6000fd5b505050506040513d601f19601f8201168201806040525081019061137f9190612a3b565b61139b5760405162461bcd60e51b815260040161034890612c6f565b600154604051632e31150760e11b81526001600160a01b0390911690635c622a0e906113cb908590600401613048565b60206040518083038186803b1580156113e357600080fd5b505afa1580156113f7573d6000803e3d6000fd5b505050506040513d601f19601f8201168201806040525081019061141b9190612b70565b60ff1660011461143d5760405162461bcd60e51b815260040161034890612eec565b600154604051633625b75960e21b81526001600160a01b039091169063d896dd6490611470908590600090600401613078565b600060405180830381600087803b15801561148a57600080fd5b505af115801561149e573d6000803e3d6000fd5b5050600154604051634fa7b50760e01b8152600093506001600160a01b039091169150634fa7b507906114d5908690600401613048565b60206040518083038186803b1580156114ed57600080fd5b505afa158015611501573d6000803e3d6000fd5b505050506040513d601f19601f8201168201806040525081019061152591906129b5565b600154604051630e75722360e41b81529192506000916001600160a01b039091169063e75722309061155b908790600401613048565b60206040518083038186803b15801561157357600080fd5b505afa158015611587573d6000803e3d6000fd5b505050506040513d601f19601f820116820180604052508101906115ab9190612aff565b90506115b78482611f57565b6001546040516331a9108f60e11b81526000916001600160a01b031690636352211e906115e8908890600401613048565b60206040518083038186803b15801561160057600080fd5b505afa158015611614573d6000803e3d6000fd5b505050506040513d601f19601f8201168201806040525081019061163891906129b5565b60015460405163c87b56dd60e01b81529192506001600160a01b0380861692818516927f43cc32c17b844a61a186a320d5980141e0f17dab3142a06916ba8d095f97177d9287928b929091169063c87b56dd90611699908490600401613048565b60006040518083038186803b1580156116b157600080fd5b505afa1580156116c5573d6000803e3d6000fd5b505050506040513d6000823e601f3d908101601f191682016040526116ed9190810190612a5b565b6040516116fc939291906130b6565b60405180910390a35050505050565b600154604051630e75722360e41b815282916001600160a01b03169063e75722309061173b908490600401613048565b60206040518083038186803b15801561175357600080fd5b505afa158015611767573d6000803e3d6000fd5b505050506040513d601f19601f8201168201806040525081019061178b9190612aff565b3410156117aa5760405162461bcd60e51b815260040161034890613011565b6001546001600160a01b0316634428967a826117c4611dbb565b6040518363ffffffff1660e01b81526004016117e1929190613051565b60206040518083038186803b1580156117f957600080fd5b505afa15801561180d573d6000803e3d6000fd5b505050506040513d601f19601f820116820180604052508101906118319190612a3b565b61184d5760405162461bcd60e51b815260040161034890612c6f565b600154604051632e31150760e11b81526001600160a01b0390911690635c622a0e9061187d908590600401613048565b60206040518083038186803b15801561189557600080fd5b505afa1580156118a9573d6000803e3d6000fd5b505050506040513d601f19601f820116820180604052508101906118cd9190612b70565b60ff166002146118ef5760405162461bcd60e51b815260040161034890612d60565b6001546040516331a9108f60e11b81526000916001600160a01b031690636352211e90611920908690600401613048565b60206040518083038186803b15801561193857600080fd5b505afa15801561194c573d6000803e3d6000fd5b505050506040513d601f19601f8201168201806040525081019061197091906129b5565b9050600061197c611dbb565b600154604051633625b75960e21b81529192506001600160a01b03169063d896dd64906119b0908790600090600401613078565b600060405180830381600087803b1580156119ca57600080fd5b505af11580156119de573d6000803e3d6000fd5b505050506119eb846122d2565b600154604051630e75722360e41b81526001600160a01b0383811692858216927f3e312117f0a31236e6387da22129d0d835abb859cfafc40024e239eefe113275929091169063e757223090611a45908a90600401613048565b60206040518083038186803b158015611a5d57600080fd5b505afa158015611a71573d6000803e3d6000fd5b505050506040513d601f19601f82011682018060405250810190611a959190612aff565b60015460405163c87b56dd60e01b815289916001600160a01b03169063c87b56dd90611ac5908490600401613048565b60006040518083038186803b158015611add57600080fd5b505afa158015611af1573d6000803e3d6000fd5b505050506040513d6000823e601f3d908101601f19168201604052611b199190810190612a5b565b604051611b28939291906130b6565b60405180910390a350505050565b60015482906001600160a01b0316631b55482d82611b52611dbb565b6040518363ffffffff1660e01b8152600401611b6f929190613051565b60206040518083038186803b158015611b8757600080fd5b505afa158015611b9b573d6000803e3d6000fd5b505050506040513d601f19601f82011682018060405250810190611bbf9190612a3b565b611bdb5760405162461bcd60e51b815260040161034890612c6f565b600154604051630e75722360e41b81526000916001600160a01b03169063e757223090611c0c908790600401613048565b60206040518083038186803b158015611c2457600080fd5b505afa158015611c38573d6000803e3d6000fd5b505050506040513d601f19601f82011682018060405250810190611c5c9190612aff565b60015460405163f7d9757760e01b81529192506001600160a01b03169063f7d9757790611c8f9087908790600401613089565b600060405180830381600087803b158015611ca957600080fd5b505af1158015611cbd573d6000803e3d6000fd5b50505050611cc9611dbb565b6001600160a01b03167f40a2e1011bc4b63fe019abc98ce43b9ae4a22f2072b84f3d14941dc1675979c28285876040516112e8939291906130de565b611d0d611dbb565b6000546001600160a01b03908116911614611d3a5760405162461bcd60e51b815260040161034890612e71565b6001600160a01b038116611d605760405162461bcd60e51b815260040161034890612c9a565b600080546040516001600160a01b03808516939216917f8be0079c531659141344cd1fd0a4f28419497f9722a3daafe3b4186f6b6457e091a3600080546001600160a01b0319166001600160a01b0392909216919091179055565b3390565b611e158363a9059cbb60e01b8484604051602401611dde929190612c0c565b60408051601f198184030181529190526020810180516001600160e01b03166001600160e01b031990931692909217909152612694565b505050565b600154604051630e75722360e41b815260009182916001600160a01b039091169063e757223090611e4f908790600401613048565b60206040518083038186803b158015611e6757600080fd5b505afa158015611e7b573d6000803e3d6000fd5b505050506040513d601f19601f82011682018060405250810190611e9f9190612aff565b60015460405163f7d9757760e01b81529192506001600160a01b03169063f7d9757790611ed29087908790600401613089565b600060405180830381600087803b158015611eec57600080fd5b505af1158015611f00573d6000803e3d6000fd5b509293505050505b92915050565b6000611f5083836040518060400160405280601e81526020017f536166654d6174683a207375627472616374696f6e206f766572666c6f770000815250612723565b9392505050565b6001546040516331a9108f60e11b81526000916001600160a01b031690636352211e90611f88908690600401613048565b60206040518083038186803b158015611fa057600080fd5b505afa158015611fb4573d6000803e3d6000fd5b505050506040513d601f19601f82011682018060405250810190611fd891906129b5565b600154604051634fa7b50760e01b81529192506000916001600160a01b0390911690634fa7b5079061200e908790600401613048565b60206040518083038186803b15801561202657600080fd5b505afa15801561203a573d6000803e3d6000fd5b505050506040513d601f19601f8201168201806040525081019061205e91906129b5565b6001546040516346e1adf560e01b81529192506001600160a01b0316906346e1adf590612092908790600090600401613051565b600060405180830381600087803b1580156120ac57600080fd5b505af11580156120c0573d6000803e3d6000fd5b50506001546040516357ca23fd60e11b8152600093506001600160a01b03909116915063af9447fa906120f7908890600401613048565b60206040518083038186803b15801561210f57600080fd5b505afa158015612123573d6000803e3d6000fd5b505050506040513d601f19601f8201168201806040525081019061214791906129b5565b600154604051630ae101cb60e41b81529192506000916001600160a01b039091169063ae101cb09061217d908990600401613048565b60206040518083038186803b15801561219557600080fd5b505afa1580156121a9573d6000803e3d6000fd5b505050506040513d601f19601f820116820180604052508101906121cd9190612b70565b600154604051630fd343bd60e41b81529192506001600160a01b03169063fd343bd09061220290879087908b90600401612be8565b600060405180830381600087803b15801561221c57600080fd5b505af1158015612230573d6000803e3d6000fd5b50505050600061225660646122506004548961274f90919063ffffffff16565b90612789565b9050600061226c60646122508960ff871661274f565b9050600061227e826108d48a86611f0e565b905061229e61228b611dbb565b6002546001600160a01b03169083611dbf565b6003546002546122bb916001600160a01b03918216911685611dbf565b600254610a3b906001600160a01b03168684611dbf565b6001546040516331a9108f60e11b81526000916001600160a01b031690636352211e90612303908590600401613048565b60206040518083038186803b15801561231b57600080fd5b505afa15801561232f573d6000803e3d6000fd5b505050506040513d601f19601f8201168201806040525081019061235391906129b5565b9050600061235f611dbb565b600154604051630e75722360e41b81529192506000916001600160a01b039091169063e757223090612395908790600401613048565b60206040518083038186803b1580156123ad57600080fd5b505afa1580156123c1573d6000803e3d6000fd5b505050506040513d601f19601f820116820180604052508101906123e59190612aff565b600154604051630ae101cb60e41b81529192506000916001600160a01b039091169063ae101cb09061241b908890600401613048565b60206040518083038186803b15801561243357600080fd5b505afa158015612447573d6000803e3d6000fd5b505050506040513d601f19601f8201168201806040525081019061246b9190612b70565b600154604051630fd343bd60e41b81529192506001600160a01b03169063fd343bd0906124a090879087908a90600401612be8565b600060405180830381600087803b1580156124ba57600080fd5b505af11580156124ce573d6000803e3d6000fd5b5050505060006124ee60646122506004548661274f90919063ffffffff16565b9050600061250460646122508660ff871661274f565b90506000612516826108d48786611f0e565b6001546040516357ca23fd60e11b81529192506000916001600160a01b039091169063af9447fa9061254c908c90600401613048565b60206040518083038186803b15801561256457600080fd5b505afa158015612578573d6000803e3d6000fd5b505050506040513d601f19601f8201168201806040525081019061259c91906129b5565b6040519091506001600160a01b0389169083156108fc029084906000818181858888f193505050501580156125d5573d6000803e3d6000fd5b506003546040516001600160a01b039091169085156108fc029086906000818181858888f19350505050158015612610573d6000803e3d6000fd5b506040516001600160a01b0382169084156108fc029085906000818181858888f19350505050158015612647573d6000803e3d6000fd5b5085341115610a3b576040516001600160a01b038816903488900380156108fc02916000818181858888f19350505050158015612688573d6000803e3d6000fd5b50505050505050505050565b60606126e9826040518060400160405280602081526020017f5361666545524332303a206c6f772d6c6576656c2063616c6c206661696c6564815250856001600160a01b03166127cb9092919063ffffffff16565b805190915015611e1557808060200190518101906127079190612a3b565b611e155760405162461bcd60e51b815260040161034890612f5a565b600081848411156127475760405162461bcd60e51b81526004016103489190612c25565b505050900390565b60008261275e57506000611f08565b8282028284828161276b57fe5b0414611f505760405162461bcd60e51b815260040161034890612e30565b6000611f5083836040518060400160405280601a81526020017f536166654d6174683a206469766973696f6e206279207a65726f0000000000008152506127e2565b60606127da8484600085612819565b949350505050565b600081836128035760405162461bcd60e51b81526004016103489190612c25565b50600083858161280f57fe5b0495945050505050565b60608247101561283b5760405162461bcd60e51b815260040161034890612da8565b612844856128da565b6128605760405162461bcd60e51b815260040161034890612f23565b60006060866001600160a01b0316858760405161287d9190612bb8565b60006040518083038185875af1925050503d80600081146128ba576040519150601f19603f3d011682016040523d82523d6000602084013e6128bf565b606091505b50915091506128cf8282866128e0565b979650505050505050565b3b151590565b606083156128ef575081611f50565b8251156128ff5782518084602001fd5b8160405162461bcd60e51b81526004016103489190612c25565b600082601f830112612929578081fd5b813567ffffffffffffffff81111561293f578182fd5b602080820261294f82820161310d565b8381529350818401858301828701840188101561296b57600080fd5b600092505b8483101561298e578035825260019290920191908301908301612970565b505050505092915050565b6000602082840312156129aa578081fd5b8135611f5081613160565b6000602082840312156129c6578081fd5b8151611f5081613160565b6000806000606084860312156129e5578182fd5b833567ffffffffffffffff808211156129fc578384fd5b612a0887838801612919565b9450602086013593506040860135915080821115612a24578283fd5b50612a3186828701612919565b9150509250925092565b600060208284031215612a4c578081fd5b81518015158114611f50578182fd5b600060208284031215612a6c578081fd5b815167ffffffffffffffff80821115612a83578283fd5b818401915084601f830112612a96578283fd5b815181811115612aa4578384fd5b612ab7601f8201601f191660200161310d565b9150808252856020828501011115612acd578384fd5b612ade816020840160208601613134565b50949350505050565b600060208284031215612af8578081fd5b5035919050565b600060208284031215612b10578081fd5b5051919050565b60008060408385031215612b29578182fd5b50508035926020909101359150565b600080600060608486031215612b4c578283fd5b83359250602084013591506040840135612b6581613178565b809150509250925092565b600060208284031215612b81578081fd5b8151611f5081613178565b60008151808452612ba4816020860160208601613134565b601f01601f19169290920160200192915050565b60008251612bca818460208701613134565b9190910192915050565b6001600160a01b0391909116815260200190565b6001600160a01b039384168152919092166020820152604081019190915260600190565b6001600160a01b03929092168252602082015260400190565b600060208252611f506020830184612b8c565b6020808252601a908201527f2052656d6f766520746f6b656e2066726f6d206c697374696e67000000000000604082015260600190565b60208082526011908201527015985b1a59185d1a5bdb8819985a5b1959607a1b604082015260600190565b60208082526026908201527f4f776e61626c653a206e6577206f776e657220697320746865207a65726f206160408201526564647265737360d01b606082015260800190565b6020808252601f908201527f5468697320746f6b656e206973206e6f74206f6e20616e2061756374696f6e00604082015260600190565b60208082526029908201527f54686973206974656d206973206c6973746564206f72206f6e2061756374696f6040820152686e20616c726561647960b81b606082015260800190565b60208082526028908201527f596f752063616e2774206275792e205468697320746f6b656e206973206f6e2060408201526720bab1ba34b7b71760c11b606082015260800190565b60208082526026908201527f416464726573733a20696e73756666696369656e742062616c616e636520666f6040820152651c8818d85b1b60d21b606082015260800190565b60208082526022908201527f497420697320616c7265616479206c6973746564206f7220696e20617563746960408201526137b760f11b606082015260800190565b60208082526021908201527f536166654d6174683a206d756c7469706c69636174696f6e206f766572666c6f6040820152607760f81b606082015260800190565b6020808252818101527f4f776e61626c653a2063616c6c6572206973206e6f7420746865206f776e6572604082015260600190565b60208082526026908201527f596f752063616e27742063616e63656c207768656e20796f752068617665206260408201526569646465727360d01b606082015260800190565b6020808252601f908201527f5468697320746f6b656e206973206e6f74206f6e20616e2041756374696f6e00604082015260600190565b6020808252601d908201527f416464726573733a2063616c6c20746f206e6f6e2d636f6e7472616374000000604082015260600190565b6020808252602a908201527f5361666545524332303a204552433230206f7065726174696f6e20646964206e6040820152691bdd081cdd58d8d9595960b21b606082015260800190565b60208082526011908201527015985b1a59185d1a5bdb8811985a5b1959607a1b604082015260600190565b60208082526022908201527f53656e7420424e422056616c7565206973206c6f776572207468616e206f666660408201526132b960f11b606082015260800190565b6020808252601a908201527f4572726f722c2074686520616d6f756e74206973206c6f776572000000000000604082015260600190565b90815260200190565b9182526001600160a01b0316602082015260400190565b9182521515602082015260400190565b91825260ff16602082015260400190565b918252602082015260400190565b92835260208301919091526001600160a01b0316604082015260600190565b6000848252836020830152606060408301526130d56060830184612b8c565b95945050505050565b9283526020830191909152604082015260600190565b928352602083019190915260ff16604082015260600190565b60405181810167ffffffffffffffff8111828210171561312c57600080fd5b604052919050565b60005b8381101561314f578181015183820152602001613137565b83811115610d6e5750506000910152565b6001600160a01b038116811461317557600080fd5b50565b60ff8116811461317557600080fdfea26469706673582212206c481149474df9f680c3b04e7843e1a9259907501119e94c66a4c239ac9c6a5064736f6c634300060c0033",
    "sourcePath": "c:/Users/yazilim5/Desktop/Yeni klasr/BlokistaAuction.sol",
    "compiler": {
        "name": "solc",
        "version": "0.6.12+commit.27d51765"
    },
    "functionHashes": {
        "BlokistaVault()": "59261f13",
        "acceptOffer(uint256)": "c815729d",
        "adminFeeAddress()": "08a17149",
        "burn(uint256)": "42966c68",
        "buy(uint256)": "d96a094a",
        "cancelAuction(uint256)": "96b5a755",
        "createAuction(uint256,uint256,uint8)": "c3d671cb",
        "feePercent()": "7fd6f15c",
        "justSell(uint256[],uint256,uint256[])": "8972263b",
        "makeOffer(uint256,uint256)": "05b7cdd3",
        "owner()": "8da5cb5b",
        "renounceOwnership()": "715018a6",
        "transferOwnership(address)": "f2fde38b",
        "updatePriceAsOwner(uint256,uint256)": "edb4942a",
        "wbnb()": "8d72647e"
    },
    "gasEstimates": {
        "creation": {
            "codeDepositCost": "2546600",
            "executionCost": "infinite",
            "totalCost": "infinite"
        },
        "external": {
            "BlokistaVault()": "1093",
            "acceptOffer(uint256)": "infinite",
            "adminFeeAddress()": "1116",
            "burn(uint256)": "infinite",
            "buy(uint256)": "infinite",
            "cancelAuction(uint256)": "infinite",
            "createAuction(uint256,uint256,uint8)": "infinite",
            "feePercent()": "1095",
            "justSell(uint256[],uint256,uint256[])": "infinite",
            "makeOffer(uint256,uint256)": "infinite",
            "owner()": "1115",
            "renounceOwnership()": "24249",
            "transferOwnership(address)": "24521",
            "updatePriceAsOwner(uint256,uint256)": "infinite",
            "wbnb()": "1093"
        },
        "internal": {
            "_justTrade(uint256)": "infinite",
            "_trade(uint256,uint256)": "infinite",
            "increaseBid(uint256,uint256)": "infinite"
        }
    }
}